:02000000182BBB
:06000600000000000800EC
:10000C000F3083120313FC004730FD00FD0B0C284E
:0A001C00FC0B0C2800000000080097
:0E002600213083120313FD00FD0B1728080084
:10003400063083120313FD00FD0B1E280000080088
:10004400831203179D1B28288611292886151D1B3A
:100054002D2806112E2806159D1A322886103328BD
:1000640086141D1A372806103828061403136F182F
:100074003D2806163E28061286160320861203170C
:100084009D1946288611472886151D194B280611E7
:100094004C2806159D1850288610512886141D18C2
:1000A400552806105628061403136F185B280616E5
:1000B4005C2806128616032086126F1C632806200D
:0600C4006428132008006F
:1000CA00831203179D019F01A0011030A100043083
:1000DA00200203189A28F030031388008030F000B9
:1000EA007008083E840003172109F0007008800098
:1000FA00032003200F3003130805F00070080317CC
:10010A009E007008031994281F089D001E080319F1
:10011A0092289E0C9E139D0A8B280430A000A10DE4
:10012A00211004309F07A00A6C281D08F00008005F
:10013A00AF288030831203179A00C228C0309A0071
:10014A00C22894309A00C228D4309A00C22880303B
:10015A009A00C228831203171A08013A03199E2823
:10016A001A08023A0319A3281A08033A0319A628F7
:10017A001A08043A0319A928AC281B03F0001A0824
:10018A00F00770089A0003136F14700803179D0094
:10019A0022206F1003171C089D0022206F140800EC
:1001AA00831203171A088D0083168C130C148312FA
:0601BA000C08F000080033
:1001C000652070089A000F3003130805F00003192A
:0E01D000EB281A20E32803171A08F000080095
:1001DE00831203136F1003171A089D0022206F1449
:0201EE00080007
:1001F000831603178C1CFE280000F82883121A08A7
:100200008D001B088C0083168C130C150B08F00056
:100210008B1355308D00AA308D008C14F01B1229E1
:0A0220008B1313298B170C11080033
:10022A00343083120313FC00F130FD00FD0B1B294F
:10023A00FC0B1B290000000003179A01D520700847
:10024A0090003430FC00F130FD00FD0B2A29FC0B34
:10025A002A290000000001309A00D5207008910078
:10026A003430FC00F130FD00FD0B3929FC0B392933
:10027A000000000002309A00D52070089200343045
:10028A00FC00F130FD00FD0B4829FC0B4829000059
:10029A00000003309A00D520700893003430FC0027
:1002AA00F130FD00FD0B5729FC0B57290000000017
:0202BA0008003A
:1002BC00343083120313FC00F130FD00FD0B642974
:1002CC00FC0B64290000000003179A01831603132A
:1002DC005D08831203179B00F8203430FC00F130CA
:1002EC00FD00FD0B7729FC0B772900000000013085
:1002FC0083129A00831603135E08831203179B0064
:10030C00F8203430FC00F130FD00FD0B8B29FC0B88
:10031C008B2900000000023083129A00831603130D
:10032C005F08831203179B00F8203430FC00F13077
:10033C00FD00FD0B9F29FC0B9F29000000000330E2
:10034C0083129A00831603136008831203179B0011
:04035C00F82008007D
:1003600083120313EE01E02070080313EE007008FF
:100370000319B329DF293130EE000F2A3230EE00A5
:100380000F2A3330EE000F2A3430EE000F2A3530BA
:10039000EE000F2A3630EE000F2A3730EE000F2A1B
:1003A0003830EE000F2A3930EE000F2A2A30EE00E6
:1003B0000F2A3030EE000F2A2330EE000F2A6E088D
:1003C000013A0319BB296E08023A0319BE296E08C7
:1003D000033A0319C1296E08053A0319C4296E08A6
:1003E000063A0319C7296E08073A0319CA296E0885
:1003F000093A0319CD296E080A3A0319D0296E0863
:100400000B3A0319D3296E080D3A0319D6296E0841
:100410000E3A0319D9296E080F3A0319DC2930085E
:10042000DD3E84006E088000023003179A0003133B
:10043000300A03179B0003133008DD3E84000008D8
:0E04400003179C009D20B00A0319B10A0800A2
:10044E00392A80308312031796004C2AC03096004A
:10045E004C2A943096004C2AD43096004C2A803088
:10046E0096004C2A831203171608013A0319282AFC
:10047E001608023A03192D2A1608033A0319302AD0
:10048E001608043A0319332A362A1703F000160801
:10049E00F0077008960070089D0022206F10031759
:1004AE00990119081807840000080319672A19080A
:1004BE001807840000089A00EF200317990A582A9B
:0604CE0003136F14080087
:0E04D400831603136D088A006C08820008006E
:1004E2000130831203179D0022200130031796006A
:1004F20001309700203098002722B001B101B021CD
:10050200B021B021B0215E213430FC00F130FD0079
:10051200FD0B892AFC0B892A0000000015213430CA
:10052200FC00F130FD00FD0B942AFC0B942A000024
:10053200000001309D002220013003179600013097
:1005420097003230980027223330FB00BB30FC008A
:10055200DF30FD00FD0BAB2AFC0BAB2AFB0BAB2AF9
:060562000000000008008B
:1005680083160313861206120610861006118611CA
:1005780083128612061286110611861006100620AE
:1005880006200620861406148616032086120620E6
:100598008616032086120620861603208612062059
:1005A8000610861603208612062086160320861259
:1005B80086108615861603208612062086110614D4
:1005C8008616032086120610861603208612062039
:1005D8008616032086120614861603208612062025
:1005E800061086160320861286150615861406142C
:0C05F80086160320861206206F140800EF
:100604006A228A110A128000840AEC0A0319ED0A8C
:08061400F003031D022B080096
:10061C00803083120313F0007008083E8400FF3012
:04062C008000080042
:10063000C2250E23831603178801890183128713AD
:10064000881383160313870183128701B4220130B4
:1006500003179D0022200C3003179D002220152136
:1006600001309D0022200C3003179D002220013014
:1006700003179D00222001300317960005309700D4
:100680003F3098002722023003179600043097006D
:10069000C130980027221530FB004B30FC00BE30E3
:1006A000FD00FD0B512BFC0B512BFB0B512B0000C4
:1006B000013003179D0022200130031796000130FE
:1006C0009700B130980027220230031796000130BE
:1006D0009700A030980027221530FB004B30FC001B
:1006E000BE30FD00FD0B722BFC0B722BFB0B722B33
:1006F00000000317940195018312031701309D0038
:10070000222002300317960003309700D53098005E
:100710002722B001B101B02183165D082A3A031DDA
:100720002F2D0130831203179D0022200130031763
:10073000960001309700CA3098002722B001B1011D
:10074000B021B021B021B021B02183165D08313A2B
:10075000031DC22B5E08323A031DC22B5F08333AD9
:10076000031DC22B6008343A031DC22B6108353AC1
:10077000031DC22BB02183166208233A031DC12B2F
:100780007122212D8312803003171506F00080306E
:100790007002031DCD2B033014020318042D8316A1
:1007A00003135D08831203171006031D042D83161F
:1007B00003135E08831203171106031D042D83160D
:1007C00003135F08831203171206031D042D8316FB
:1007D00003136008831203171306031D042D8316E9
:1007E00003136108233A031D042D013083120317FC
:1007F0009D002220013003179600043097004A30F4
:1008000098002722213003179A00D5200130831643
:100810000313EE000030EF003430FC00F130FD0037
:10082000FD0B102CFC0B102C00000000213083125B
:1008300003179A00831603136E08831203179B0095
:10084000F8203430FC00F130FD00FD0B252CFC0BB2
:10085000252C00000000213083129A00D52003309F
:10086000031387000630FB001330FC00AD30FD00A1
:10087000FD0B382CFC0B382CFB0B382C0000000037
:10088000063087000630FB001330FC00AD30FD0061
:10089000FD0B482CFC0B482CFB0B482C00000000E7
:1008A0000C3087000630FB001330FC00AD30FD003B
:1008B000FD0B582CFC0B582CFB0B582C0000000097
:1008C000093087000630FB001330FC00AD30FD001E
:1008D000FD0B682CFC0B682CFB0B682C0000000047
:1008E0003330FB00BB30FC00DF30FD00FD0B762C0D
:1008F000FC0B762CFB0B762C00000000013003175C
:100900009D002220013003179600043097006330C9
:1009100098002722213003179A00D520831603134D
:10092000EE01EF013430FC00F130FD00FD0B962CA0
:10093000FC0B962C000000002130831203179A0054
:10094000831603136E08831203179B00F8203430BC
:10095000FC00F130FD00FD0BAB2CFC0BAB2C0000C0
:100960000000213083129A00D5200C300313870039
:100970000630FB001330FC00AD30FD00FD0BBE2C3B
:10098000FC0BBE2CFB0BBE2C0000000006308700C9
:100990000630FB001330FC00AD30FD00FD0BCE2C0B
:1009A000FC0BCE2CFB0BCE2C00000000033087008C
:1009B0000630FB001330FC00AD30FD00FD0BDE2CDB
:1009C000FC0BDE2CFB0BDE2C000000000930870046
:1009D0000630FB001330FC00AD30FD00FD0BEE2CAB
:1009E000FC0BEE2CFB0BEE2C000000001530FB0086
:1009F0004B30FC00BE30FD00FD0BFC2CFC0BFC2C36
:100A0000FB0BFC2C0000212D83120317940A031901
:100A1000950A01309D002220013003179600013015
:100A200097005430980027221530FB004B30FC0013
:100A3000BE30FD00FD0B1A2DFC0B1A2DFB0B1A2DE1
:100A400000008312803003171506F000803070021A
:100A5000031D2C2D03301402031C2F2D7C2B7C2B0B
:020A6000302D37
:100B8400203084004E3083120313F0003630831675
:100B9400EC000530ED000223A03084003D30031347
:100BA400F00084308316EC000530ED0002230800C9
:100A6C0045346E3474346534723420344E34653409
:100A7C007734203443346F34643465343A3400347E
:040A8C0000340034FE
:100A90004E3465347734203443346F3464346534F1
:0A0AA00020345334653474340034FC
:100AAA0041346334633465347334733420345034DA
:060ABA0069346E340034C3
:100AC00044346F346F34723420344F3470346534AE
:040AD0006E3400344C
:100AD400573472346F346E34673420345034613494
:0E0AE4007334733477346F34723464340034F6
:100AF20044346F346F347234203443346C346F3482
:060B020073346534003479
:100B08004634723465346434653472346934633419
:100B18006B344234693461346E347A346F346E34F1
:020B2800003497
:100B2A004434693467346934743461346C344C3411
:100B3A006F3463346B342034423479343A340034B9
:100B4A0053346534633475347234693474347934A3
:020B5A00003465
:100B5C0045346E34743465347234203443346F3419
:060B6C006434653400341E
:100B72005034723465347334733420342A3400347C
:04400E00F22F000786
:00000001FF
